{
  "_format": "hh-sol-artifact-1",
  "contractName": "SeedSecure",
  "sourceName": "contracts/SeedSecure.sol",
  "abi": [
    {
      "inputs": [],
      "stateMutability": "nonpayable",
      "type": "constructor"
    },
    {
      "anonymous": false,
      "inputs": [
        {
          "indexed": true,
          "internalType": "uint256",
          "name": "batchID",
          "type": "uint256"
        },
        {
          "indexed": false,
          "internalType": "string",
          "name": "seedType",
          "type": "string"
        },
        {
          "indexed": false,
          "internalType": "uint256",
          "name": "purityScore",
          "type": "uint256"
        }
      ],
      "name": "BatchCreated",
      "type": "event"
    },
    {
      "anonymous": false,
      "inputs": [
        {
          "indexed": true,
          "internalType": "bytes32",
          "name": "childHash",
          "type": "bytes32"
        },
        {
          "indexed": false,
          "internalType": "string",
          "name": "latitude",
          "type": "string"
        },
        {
          "indexed": false,
          "internalType": "string",
          "name": "longitude",
          "type": "string"
        }
      ],
      "name": "LocationLocked",
      "type": "event"
    },
    {
      "anonymous": false,
      "inputs": [
        {
          "indexed": true,
          "internalType": "uint256",
          "name": "batchID",
          "type": "uint256"
        },
        {
          "indexed": false,
          "internalType": "bytes32",
          "name": "childHash",
          "type": "bytes32"
        },
        {
          "indexed": true,
          "internalType": "address",
          "name": "buyer",
          "type": "address"
        }
      ],
      "name": "SeedSold",
      "type": "event"
    },
    {
      "inputs": [
        {
          "internalType": "uint256",
          "name": "_batchID",
          "type": "uint256"
        }
      ],
      "name": "batches",
      "outputs": [
        {
          "internalType": "uint256",
          "name": "",
          "type": "uint256"
        },
        {
          "internalType": "string",
          "name": "",
          "type": "string"
        },
        {
          "internalType": "uint256",
          "name": "",
          "type": "uint256"
        },
        {
          "internalType": "address",
          "name": "",
          "type": "address"
        },
        {
          "internalType": "bool",
          "name": "",
          "type": "bool"
        }
      ],
      "stateMutability": "view",
      "type": "function"
    },
    {
      "inputs": [
        {
          "internalType": "bytes32",
          "name": "",
          "type": "bytes32"
        }
      ],
      "name": "burnedChildPackets",
      "outputs": [
        {
          "internalType": "bool",
          "name": "",
          "type": "bool"
        }
      ],
      "stateMutability": "view",
      "type": "function"
    },
    {
      "inputs": [
        {
          "internalType": "uint256",
          "name": "_batchID",
          "type": "uint256"
        },
        {
          "internalType": "string",
          "name": "_seedType",
          "type": "string"
        },
        {
          "internalType": "uint256",
          "name": "_purityScore",
          "type": "uint256"
        }
      ],
      "name": "createBatch",
      "outputs": [],
      "stateMutability": "nonpayable",
      "type": "function"
    },
    {
      "inputs": [],
      "name": "manufacturer",
      "outputs": [
        {
          "internalType": "address",
          "name": "",
          "type": "address"
        }
      ],
      "stateMutability": "view",
      "type": "function"
    },
    {
      "inputs": [
        {
          "internalType": "bytes32",
          "name": "",
          "type": "bytes32"
        }
      ],
      "name": "packetLocations",
      "outputs": [
        {
          "internalType": "string",
          "name": "latitude",
          "type": "string"
        },
        {
          "internalType": "string",
          "name": "longitude",
          "type": "string"
        }
      ],
      "stateMutability": "view",
      "type": "function"
    },
    {
      "inputs": [
        {
          "internalType": "address",
          "name": "_newManufacturer",
          "type": "address"
        }
      ],
      "name": "transferManufacturer",
      "outputs": [],
      "stateMutability": "nonpayable",
      "type": "function"
    },
    {
      "inputs": [
        {
          "internalType": "uint256",
          "name": "_batchID",
          "type": "uint256"
        },
        {
          "internalType": "bytes32",
          "name": "_childHash",
          "type": "bytes32"
        },
        {
          "internalType": "string",
          "name": "_lat",
          "type": "string"
        },
        {
          "internalType": "string",
          "name": "_lng",
          "type": "string"
        }
      ],
      "name": "verifyAndSell",
      "outputs": [],
      "stateMutability": "nonpayable",
      "type": "function"
    }
  ],
  "bytecode": "0x6080604052348015600f57600080fd5b50336000806101000a81548173ffffffffffffffffffffffffffffffffffffffff021916908373ffffffffffffffffffffffffffffffffffffffff1602179055506113da8061005f6000396000f3fe608060405234801561001057600080fd5b506004361061007d5760003560e01c8063b7604dd11161005b578063b7604dd114610104578063c97f9f9414610135578063f33c7bcc14610151578063fb513a701461016d5761007d565b806374754282146100825780638fa50009146100a0578063b32c4d8d146100d0575b600080fd5b61008a610189565b60405161009791906108e7565b60405180910390f35b6100ba60048036038101906100b5919061094c565b6101ad565b6040516100c79190610994565b60405180910390f35b6100ea60048036038101906100e591906109e5565b6101cd565b6040516100fb959493929190610ab1565b60405180910390f35b61011e6004803603810190610119919061094c565b6102ef565b60405161012c929190610b0b565b60405180910390f35b61014f600480360381019061014a9190610c77565b610423565b005b61016b60048036038101906101669190610d16565b610654565b005b61018760048036038101906101829190610db1565b6107d5565b005b60008054906101000a900473ffffffffffffffffffffffffffffffffffffffff1681565b60026020528060005260406000206000915054906101000a900460ff1681565b60006060600080600080600160008881526020019081526020016000206040518060600160405290816000820154815260200160018201805461020f90610e0d565b80601f016020809104026020016040519081016040528092919081815260200182805461023b90610e0d565b80156102885780601f1061025d57610100808354040283529160200191610288565b820191906000526020600020905b81548152906001019060200180831161026b57829003601f168201915b50505050508152602001600282015481525050905060008082600001511415905081600001518260200151836040015160008054906101000a900473ffffffffffffffffffffffffffffffffffffffff168496509650965096509650505091939590929450565b600360205280600052604060002060009150905080600001805461031290610e0d565b80601f016020809104026020016040519081016040528092919081815260200182805461033e90610e0d565b801561038b5780601f106103605761010080835404028352916020019161038b565b820191906000526020600020905b81548152906001019060200180831161036e57829003601f168201915b5050505050908060010180546103a090610e0d565b80601f01602080910402602001604051908101604052809291908181526020018280546103cc90610e0d565b80156104195780601f106103ee57610100808354040283529160200191610419565b820191906000526020600020905b8154815290600101906020018083116103fc57829003601f168201915b5050505050905082565b600060016000868152602001908152602001600020600001540361047c576040517f08c379a000000000000000000000000000000000000000000000000000000000815260040161047390610e8a565b60405180910390fd5b6002600084815260200190815260200160002060009054906101000a900460ff16156104dd576040517f08c379a00000000000000000000000000000000000000000000000000000000081526004016104d490610f42565b60405180910390fd5b600060036000858152602001908152602001600020600001805461050090610e0d565b905014610542576040517f08c379a000000000000000000000000000000000000000000000000000000000815260040161053990610fae565b60405180910390fd5b60016002600085815260200190815260200160002060006101000a81548160ff0219169083151502179055506040518060400160405280838152602001828152506003600085815260200190815260200160002060008201518160000190816105ab919061117a565b5060208201518160010190816105c1919061117a565b509050503373ffffffffffffffffffffffffffffffffffffffff16847f7219b6430241500ff28c661b9c23f4d119b2fc3271e617dfd62ce8b24114393e8560405161060c919061125b565b60405180910390a3827f37ea2d5b4c7d6aebfdafb3ac7e8ae92107065366950f70cbfd7d8389188dac058383604051610646929190610b0b565b60405180910390a250505050565b60008054906101000a900473ffffffffffffffffffffffffffffffffffffffff1673ffffffffffffffffffffffffffffffffffffffff163373ffffffffffffffffffffffffffffffffffffffff16146106e2576040517f08c379a00000000000000000000000000000000000000000000000000000000081526004016106d9906112e8565b60405180910390fd5b600060016000858152602001908152602001600020600001541461073b576040517f08c379a000000000000000000000000000000000000000000000000000000000815260040161073290611354565b60405180910390fd5b60405180606001604052808481526020018381526020018281525060016000858152602001908152602001600020600082015181600001556020820151816001019081610788919061117a565b5060408201518160020155905050827f58c168780de5fc719a1e7a85c7eca394e664c0e74b7c9ebc621f0b093112d04b83836040516107c8929190611374565b60405180910390a2505050565b60008054906101000a900473ffffffffffffffffffffffffffffffffffffffff1673ffffffffffffffffffffffffffffffffffffffff163373ffffffffffffffffffffffffffffffffffffffff1614610863576040517f08c379a000000000000000000000000000000000000000000000000000000000815260040161085a906112e8565b60405180910390fd5b806000806101000a81548173ffffffffffffffffffffffffffffffffffffffff021916908373ffffffffffffffffffffffffffffffffffffffff16021790555050565b600073ffffffffffffffffffffffffffffffffffffffff82169050919050565b60006108d1826108a6565b9050919050565b6108e1816108c6565b82525050565b60006020820190506108fc60008301846108d8565b92915050565b6000604051905090565b600080fd5b600080fd5b6000819050919050565b61092981610916565b811461093457600080fd5b50565b60008135905061094681610920565b92915050565b6000602082840312156109625761096161090c565b5b600061097084828501610937565b91505092915050565b60008115159050919050565b61098e81610979565b82525050565b60006020820190506109a96000830184610985565b92915050565b6000819050919050565b6109c2816109af565b81146109cd57600080fd5b50565b6000813590506109df816109b9565b92915050565b6000602082840312156109fb576109fa61090c565b5b6000610a09848285016109d0565b91505092915050565b610a1b816109af565b82525050565b600081519050919050565b600082825260208201905092915050565b60005b83811015610a5b578082015181840152602081019050610a40565b60008484015250505050565b6000601f19601f8301169050919050565b6000610a8382610a21565b610a8d8185610a2c565b9350610a9d818560208601610a3d565b610aa681610a67565b840191505092915050565b600060a082019050610ac66000830188610a12565b8181036020830152610ad88187610a78565b9050610ae76040830186610a12565b610af460608301856108d8565b610b016080830184610985565b9695505050505050565b60006040820190508181036000830152610b258185610a78565b90508181036020830152610b398184610a78565b90509392505050565b600080fd5b600080fd5b7f4e487b7100000000000000000000000000000000000000000000000000000000600052604160045260246000fd5b610b8482610a67565b810181811067ffffffffffffffff82111715610ba357610ba2610b4c565b5b80604052505050565b6000610bb6610902565b9050610bc28282610b7b565b919050565b600067ffffffffffffffff821115610be257610be1610b4c565b5b610beb82610a67565b9050602081019050919050565b82818337600083830152505050565b6000610c1a610c1584610bc7565b610bac565b905082815260208101848484011115610c3657610c35610b47565b5b610c41848285610bf8565b509392505050565b600082601f830112610c5e57610c5d610b42565b5b8135610c6e848260208601610c07565b91505092915050565b60008060008060808587031215610c9157610c9061090c565b5b6000610c9f878288016109d0565b9450506020610cb087828801610937565b935050604085013567ffffffffffffffff811115610cd157610cd0610911565b5b610cdd87828801610c49565b925050606085013567ffffffffffffffff811115610cfe57610cfd610911565b5b610d0a87828801610c49565b91505092959194509250565b600080600060608486031215610d2f57610d2e61090c565b5b6000610d3d868287016109d0565b935050602084013567ffffffffffffffff811115610d5e57610d5d610911565b5b610d6a86828701610c49565b9250506040610d7b868287016109d0565b9150509250925092565b610d8e816108c6565b8114610d9957600080fd5b50565b600081359050610dab81610d85565b92915050565b600060208284031215610dc757610dc661090c565b5b6000610dd584828501610d9c565b91505092915050565b7f4e487b7100000000000000000000000000000000000000000000000000000000600052602260045260246000fd5b60006002820490506001821680610e2557607f821691505b602082108103610e3857610e37610dde565b5b50919050565b7f426174636820646f6573206e6f74206578697374000000000000000000000000600082015250565b6000610e74601483610a2c565b9150610e7f82610e3e565b602082019050919050565b60006020820190508181036000830152610ea381610e67565b9050919050565b7f5741524e494e473a2046414b45204f52204455504c494341544520444554454360008201527f5445442e2054686973207061636b65742068617320616c72656164792062656560208201527f6e2076657269666965642e000000000000000000000000000000000000000000604082015250565b6000610f2c604b83610a2c565b9150610f3782610eaa565b606082019050919050565b60006020820190508181036000830152610f5b81610f1f565b9050919050565b7f4c6f636174696f6e20616c7265616479206c6f636b6564000000000000000000600082015250565b6000610f98601783610a2c565b9150610fa382610f62565b602082019050919050565b60006020820190508181036000830152610fc781610f8b565b9050919050565b60008190508160005260206000209050919050565b60006020601f8301049050919050565b600082821b905092915050565b6000600883026110307fffffffffffffffffffffffffffffffffffffffffffffffffffffffffffffffff82610ff3565b61103a8683610ff3565b95508019841693508086168417925050509392505050565b6000819050919050565b600061107761107261106d846109af565b611052565b6109af565b9050919050565b6000819050919050565b6110918361105c565b6110a561109d8261107e565b848454611000565b825550505050565b600090565b6110ba6110ad565b6110c5818484611088565b505050565b5b818110156110e9576110de6000826110b2565b6001810190506110cb565b5050565b601f82111561112e576110ff81610fce565b61110884610fe3565b81016020851015611117578190505b61112b61112385610fe3565b8301826110ca565b50505b505050565b600082821c905092915050565b600061115160001984600802611133565b1980831691505092915050565b600061116a8383611140565b9150826002028217905092915050565b61118382610a21565b67ffffffffffffffff81111561119c5761119b610b4c565b5b6111a68254610e0d565b6111b18282856110ed565b600060209050601f8311600181146111e457600084156111d2578287015190505b6111dc858261115e565b865550611244565b601f1984166111f286610fce565b60005b8281101561121a578489015182556001820191506020850194506020810190506111f5565b868310156112375784890151611233601f891682611140565b8355505b6001600288020188555050505b505050505050565b61125581610916565b82525050565b6000602082019050611270600083018461124c565b92915050565b7f4f6e6c79206d616e7566616374757265722063616e20706572666f726d20746860008201527f697320616374696f6e0000000000000000000000000000000000000000000000602082015250565b60006112d2602983610a2c565b91506112dd82611276565b604082019050919050565b60006020820190508181036000830152611301816112c5565b9050919050565b7f426174636820494420616c726561647920657869737473000000000000000000600082015250565b600061133e601783610a2c565b915061134982611308565b602082019050919050565b6000602082019050818103600083015261136d81611331565b9050919050565b6000604082019050818103600083015261138e8185610a78565b905061139d6020830184610a12565b939250505056fea2646970667358221220381faa930e59914fafa440a825f31f247a5003f6ed39fae5dc0f68b72b716ae664736f6c634300081c0033",
  "linkReferences": {},
  "deployedLinkReferences": {}
}